:020000040800F2
:10000000280800202D0C0008910300089303000825
:10001000970300089B0300089F03000800000000EE
:10002000000000000000000000000000A303000822
:10003000A503000800000000A7030008A9030008AA
:10004000470C0008470C0008470C0008470C000844
:10005000470C0008470C0008470C0008470C000834
:10006000470C0008470C0008470C0008470C000824
:10007000470C0008470C0008470C0008470C000814
:10008000470C0008470C0008470C0008470C000804
:10009000470C0008470C0008470C0008470C0008F4
:1000A000470C0008470C0008470C0008470C0008E4
:1000B000470C0008470C0008470C0008470C0008D4
:1000C000470C0008470C0008470C0008470C0008C4
:1000D000470C0008D70B0008470C0008470C000825
:1000E000470C0008470C0008470C0008470C0008A4
:1000F000470C0008470C0008470C0008470C000894
:10010000470C0008470C0008470C0008470C000883
:10011000470C0008470C0008470C0008470C000873
:10012000470C0008470C0008470C0008470C000863
:10013000470C0008470C0008470C0008470C000853
:10014000470C0008470C0008470C0008470C000843
:10015000470C0008470C0008470C0008470C000833
:10016000470C0008470C0008470C0008470C000823
:10017000470C0008470C0008470C0008470C000813
:10018000470C0008470C000800F002F800F055F892
:100190000AA090E8000C82448344AAF10107DA45E2
:1001A00001D100F04AF8AFF2090EBAE80F0013F0DF
:1001B000010F18BFFB1A43F0010318477438000001
:1001C00094380000103A24BF78C878C1FAD8520792
:1001D00024BF30C830C144BF04680C6070470000C1
:1001E0000023002400250026103A28BF78C1FBD840
:1001F000520728BF30C148BF0B607047662903F023
:10020000CB83642902F0C480732902F0AF830020FD
:1002100070471FB503F0BBFB02F02AFC040000206E
:10022000002103F0FFF9401C60600020002103F072
:10023000E3F9E0601FBD10B510BD02F081FD11466D
:10024000FFF7E7FF00F008F802F0ADFD03B4FFF799
:10025000F2FF03BC00F00AFC2DED048B9FED370A82
:10026000B0EE408A00BF4FF4A06000F0FFFCA82071
:1002700000F07AFB4FF4612000F052FC00F09EF990
:1002800000F024FB58E02E480078012849D10020D6
:100290002B490870891C2BA002F010F828488078A0
:1002A000242836D1264800792C2832D12448C07819
:1002B00030282EDB2248C07833282ADC2048C0783A
:1002C000303884B21E48401D02F09EF800EE100A3D
:1002D000B8EEC00AB0EE408A9FED1E0AB4EEC08AA6
:1002E000F1EE10FA03DB9FED1B0AB0EE408AE0B29C
:1002F000B0EE480A00F0F2FA18EE100A03F0D6FA4F
:1003000041EC190B53EC192B214613A001F0D6FF39
:1003100002E01AA001F0D2FF09484178801C02F0E7
:1003200080F8022000F082FB1848006808B901201C
:1003300000E0002015490860A5E70000000000006B
:1003400030000020636F6D6D6F6E643A25730D0A87
:100350000000000000409C45636F6D6D6F6E64206F
:100360006F6B3A6368616E6E656C3A25642C766FCC
:100370006C3A25666D760D0A00000000636F6D6DA6
:100380006F6E64206572726F720D0A00A482424221
:10039000704700BFFEE700BFFEE700BFFEE700BFFB
:1003A000FEE7704770477047704700000CB50020AB
:1003B000019000907648006840F4803074490860ED
:1003C00000BF7348006800F4003000900198401CA2
:1003D0000190009818B90198B0F5A04FF1D16C4880
:1003E000006800F4003010B10120009001E000200E
:1003F00000900098012846D165484030006840F0E0
:1004000080506349403108606248006840F44040D1
:10041000604908605E48083000685D49083108603E
:100420000846006840F4004008600846006840F450
:10043000A05008605848091F0860081F006840F075
:100440008070091F086000BF5148006800F000700C
:100450000028F9D040F20570504908604C48083037
:10046000006820F003004A49083108600846006827
:1004700040F00200086000BF45480830006800F006
:100480000C000828F8D10CBD10B54548006840F4B0
:100490007000434908603E48006840F001003C4954
:1004A000086000203A4908310860394800683D4931
:1004B0000840374908603C48091D0860081F00686B
:1004C00020F48020091F0860002031490C310860A9
:1004D000FFF76CFF4FF0006031498039086010BDB4
:1004E00070B500200022022300240221284D083587
:1004F0002D6805F00C0020B1042806D0082834D15E
:1005000007E02A4D2A4E356033E02A4D284E3560EB
:100510002FE01F4D2D1D2D68C5F380541C4D2D1D42
:100520002D6805F03F0154B1224DB5FBF1F5184E91
:10053000361D3668C6F3881605FB06F209E01B4D2A
:10054000B5FBF1F5124E361D3668C6F3881605FB6D
:1005500006F20F4D2D1D2D68C5F301456D1C6B0076
:10056000B2FBF3F5124E356003E0104D104E3560CE
:1005700000BF00BF064D08352D68C5F303150E4EAC
:10058000705D0B4D2D68C540094E356070BD000093
:10059000003802400070004008544007003C024010
:1005A00088ED00E0FFFFF6FE103000240024F40088
:1005B0000000002000127A00040000201CB5012178
:1005C000202001F0E5FA4FF4C060009001208DF882
:1005D000040000208DF8060003208DF8050001209E
:1005E0008DF807006946044800F00AFE4FF4C06128
:1005F000014800F081FE1CBD001402401CB5012121
:10060000022001F0C5FAC020009001208DF80400FE
:1006100000208DF8060003208DF8050001208DF8DC
:1006200007006946CB4800F0EBFDC021C94800F047
:1006300063FE1CBD00B587B00121022001F0A8FABD
:100640000121080301F0FEFA3820059002208DF800
:10065000180000208DF81A0003208DF819000120E1
:100660008DF81B0005A9BB4800F0CAFD0522032137
:10067000B84800F050FE05220421B64800F04BFEB9
:1006800005221146B34800F046FE0121080301F09F
:100690002EFB00214FF4805001F029FB4FF4404025
:1006A000ADF800004FF48270ADF802000020ADF804
:1006B0000400ADF806000120ADF808004002ADF8D6
:1006C0000A002020ADF80C000020ADF80E00072035
:1006D000ADF810006946A04801F0FAFB01219E48E0
:1006E00001F0F0FCFFF78AFF07B000BD10B504462B
:1006F000994800884FF6C771084097490880084616
:100700000088204308800121934801F0DBFC10BDE4
:1007100010B5044600BF02218F4801F09DFD00285E
:10072000F9D021468C4801F04EFD00BF01218A48D6
:1007300001F092FD0028F9D0874801F041FDC0B2D8
:1007400010BD002002E000BF411C88B2B0F5FA7F66
:10075000F9DB7047F8B506460F46144600200090B6
:10076000002547EA0610C0B28DF80000200A8DF877
:100770000100E0B28DF80200002078490860FFF720
:10078000E0FF00BF0DE000BF0221734801F064FDEF
:100790000028F9D01DF805106F4801F014FD681C01
:1007A000C5B2032DEFDBFFF7CCFF01206B490860DA
:1007B000F8BD10B9694A116002E0684A121D116063
:1007C00070472DE9F84380460E4617461C46002028
:1007D0000090002547EA0610C0B28DF80000200AFC
:1007E0008DF80100E0B28DF8020000214046FFF7CD
:1007F000E0FFFFF7A6FF00BF0DE000BF0221564853
:1008000001F02AFD0028F9D01DF80510524801F02A
:10081000DAFC681CC5B2032DEFDBFFF792FF012164
:100820004046FFF7C6FFBDE8F88370B504460D46A5
:10083000E6B246EAC500C6B23346092205210020C9
:10084000FFF7BFFF3346092205210120FFF7B9FF5B
:1008500070BD10B50023092206211846FFF7B1FF2D
:100860000023092206210120FFF7ABFF10BD70B560
:1008700004460D463C2644EA85103043C6B2334652
:10088000092204210020FFF79CFF3346092204219E
:100890000120FFF796FF70BD70B506460C46154661
:1008A0002B46224603213046FFF78BFF70BD10B563
:1008B00004462346092208210020FFF782FF234631
:1008C000092208210120FFF77CFF10BD10B5FFF7BA
:1008D000B1FE01210846FFF7A8FF10BD70B52DED50
:1008E000068B0446B0EE408A002518EE100A02F08E
:1008F000DDFF41EC1A0B9FED1A0B53EC102B02F0AD
:10090000D7FE41EC190B02F0A3FE85B234B1012CE5
:100910000AD0022C0ED0032C18D111E02A46012156
:100920000020FFF7B9FF11E02A4608210020FFF759
:10093000B3FF0BE02A4601210846FFF7ADFF05E0B3
:100940002A4608210120FFF7A7FF00BF00BFBDEC2A
:10095000068B70BD00040240003001409882404286
:10096000105839B4C8361A4010B504466FF0040068
:1009700000F0CEF9E11704EB5171C1F3C701394A18
:1009800011701046007800EB4001C1EBC0104FF62B
:10099000FF7101EAC0003449088010BD0146314AA8
:1009A00012784A434FF0E0235A6100229A611A46B6
:1009B000126942F001021A6100BF4FF0E022106993
:1009C00000F001021AB100F48032002AF5D04FF095
:1009D000E022126922F001024FF0E0231A610022A6
:1009E0009A6170470146204A12884A434FF0E0233B
:1009F0005A6100229A611A46126942F001021A6194
:100A000000BF4FF0E022106900F001021AB100F4BB
:100A10008032002AF5D04FF0E022126922F0010264
:100A20004FF0E0231A6100229A61704770B50446C6
:100A30004FF4077094FBF0F0C6B24FF4077094FBCC
:100A4000F0F100FB114085B205E04FF40770FFF7AD
:100A5000C9FF701EC6B2002EF7D115B12846FFF7A8
:100A6000C1FF70BD1400002016000020014600BF29
:100A7000704700BF684A128802F04002002AF9D08D
:100A8000C2B2654B9A80704710B50021634800F0F0
:100A900039FA00BF614800F082FA0028FAD16049B3
:100AA0005E4800F0A8FAC8215C4800F04CFA012129
:100AB0005A4800F027FA10BD00B58FB00121880513
:100AC00001F066F8554800F041F900BF534800F0C6
:100AD00066FA0028FAD14FF0006000904E48001DE1
:100AE00001905048029000200390C82004900020FC
:100AF00005904FF4806006900020079008900990C0
:100B00004FF480300A9000200B9003200C900020BE
:100B10000D900E906946414800F0BAF90FB000BD43
:100B200010B588B004460121084601F031F80121D2
:100B3000102001F087F8072209213B4800F0EBFB69
:100B400007220A21384800F0E6FB4FF4C060069007
:100B500002208DF81C008DF81D0000208DF81E006D
:100B600001208DF81F0006A92F4800F049FB0294D0
:100B70000020ADF80C00ADF80E00ADF81000ADF897
:100B800014000C20ADF8120002A9234800F063FC09
:100B90000121214800F0E7FC012240F224411E48D7
:100BA00000F097FD25208DF8040003208DF8050046
:100BB0008DF8060001208DF8070001A800F05BF811
:100BC00001224021144800F07BFDFFF775FFFFF77D
:100BD0005BFF08B010BD10B540F224410E4800F094
:100BE000B3FDB8B100210D4800F08CF90A488088A7
:100BF0000C49891E4870084800884870074800F072
:100C0000A4F9C0F1C8000749891E48700120087086
:100C1000FFF73AFF10BD00000010014040640240A1
:100C200000003D10320000200000024009488047CB
:100C300009480047FEE7FEE7FEE7FEE7FEE7FEE7BE
:100C4000FEE7FEE7FEE7FEE704480549054A064BD6
:100C5000704700008904000889010008280200206C
:100C600028080020280400202804002032490143DD
:100C7000324A1160704770B5002100230F22C478FA
:100C80001CB32E4C246804F4E064C4F5E064C4F39F
:100C90000721C1F10404E3B20A4144789C40E1B267
:100CA0008478144021430C07210E254C05786155AA
:100CB000047804F01F050124AC4005786D11AD00E7
:100CC00005F1E025C5F8004109E0047804F01F05AE
:100CD0000124AC401B4D0678761145F8264070BDC6
:100CE000194A0A400243154B1B1F1A60704739B15D
:100CF000124A121D12680243104B1B1D1A6006E0B7
:100D00000E4A121D126882430C4B1B1D1A6070475D
:100D1000042808D14FF0E021096941F004014FF0A7
:100D2000E022116107E04FF0E021096921F00401A0
:100D30004FF0E022116170470000FA050CED00E071
:100D400000E400E080E100E080FFFF1F016821F087
:100D5000010101600021016041608160C1600161A9
:100D600021214161DB49884204D13D21D94A103A11
:100D700091608CE0D7491831884205D14FF47461F5
:100D8000D44A103A916082E0D2493031884205D18C
:100D90004FF47411CF4A103A916078E0CD49483150
:100DA000884205D14FF07461CA4A103A91606EE0F2
:100DB000C8496031884204D1C749C64A103AD16057
:100DC00065E0C4497831884204D1C449C14A103A27
:100DD000D1605CE0BF499031884204D1C049BD4A2E
:100DE000103AD16053E0BB49A831884205D14FF099
:100DF0003D51B84A103AD16049E0BA49884204D11D
:100E00003D21B84A083A116041E0B649183188429C
:100E100005D14FF47461B34A083A116037E0B14923
:100E20003031884205D14FF47411AE4A083A11604E
:100E30002DE0AC494831884205D14FF07461A94A90
:100E4000083A116023E0A7496031884204D1A249E1
:100E5000A44A121F11601AE0A2497831884204D1D5
:100E60009E49A04A121F116011E09E4990318842AC
:100E700004D19B499B4A121F116008E09949A8318F
:100E8000884204D14FF03D51964A121F11607047BD
:100E900010B500220268944B1A40CC680B682343BB
:100EA0004C6923438C692343CC6923430C6A234355
:100EB0004C6A23438C6A23434C6B23438C6B234340
:100EC0001A430260426922F00702D1E90B3423433E
:100ED0001A4342610B6943604B6883608B68C3604F
:100EE00010BD0021016041608160C160016141610C
:100EF0008161C161016241628162C16201634163DA
:100F00008163704721B1026842F00102026003E090
:100F1000026822F001020260704721B1026842F4C7
:100F20000042026003E0026822F40042026070475F
:100F300021B1026842F02002026003E0026822F060
:100F4000200202607047416070470146486880B2E5
:100F5000704722B1036843F40023036003E0036891
:100F600023F4002303600161704721B1026842F459
:100F70008022026003E0026822F48022026070474F
:100F80000AB1016100E0C1607047014600200A68B3
:100F900002F400220AB1012000E00020704701465F
:100FA00000200A6802F001020AB1012000E00020DE
:100FB0007047014600204A6902F03800704730B59A
:100FC00003460A4600200024464DAB4202D2414966
:100FD000103901E04349103902F000550DB14C6859
:100FE00000E00C68414D2C4004EA02050DB10120DF
:100FF00000E0002030BD02463A4B9A4202D235480A
:10100000103801E03748103801F000531BB1374B5E
:101010000B40C36002E0354B0B408360704710B556
:1010200001F080034BB122B1436943F08003436177
:1010300003E0436923F08003436180290BD02AB188
:10104000036801F01E042343036004E0036801F019
:101050001E04A343036010BD70B5024600200024A7
:101060000025204EB24202D21A4B103B01E01D4B2C
:10107000103B1F4E0E4036B11E2606EAD1241668DC
:1010800006EA040502E0566906F0800501F0005604
:101090000EB15C6800E01C68144E344004EA01069E
:1010A00016B10DB1012000E0002070BD02460D4BCD
:1010B0009A4202D20748103801E00A48103801F07D
:1010C00000531BB1094B0B40C36002E0074B0B40C0
:1010D00083607047106002403D000020400F0020F8
:1010E00000003D20106402403F801CF07D0F7D0F0A
:1010F0003C0F3C0F10B504469848844208D10121AA
:10110000084600F0B0FD0021012000F0ACFD76E0C3
:101110009348844208D10121022000F0A4FD00215F
:10112000022000F0A0FD6AE08E48844208D101212F
:10113000042000F098FD0021042000F094FD5EE002
:101140008948844208D10121082000F08CFD00214B
:10115000082000F088FD52E08448844208D1012133
:10116000102000F080FD0021102000F07CFD46E002
:101170007F48844208D10121202000F074FD002125
:10118000202000F070FD3AE07A48844208D1012125
:10119000402000F068FD0021402000F064FD2EE0BA
:1011A0007548844208D10121802000F05CFD0021B7
:1011B000802000F058FD22E07048844208D10121CF
:1011C000801500F050FD0021A01500F04CFD16E048
:1011D0006B48844208D10121401500F044FD0021F4
:1011E000601500F040FD0AE06648844207D1012105
:1011F000001500F038FD0021201500F034FD10BD71
:10120000F0B50A4600210023002400BF3DE001257F
:1012100005FA01F3156805EA03049C4234D1056818
:101220004F000326BE40B543056015794E00B5401A
:101230000668354305601579012D02D01579022D18
:1012400016D185684F000326BE40B54385605579A9
:101250004E00B540866835438560456801268E405E
:10126000B5434560456896798E40B6B235434560D2
:10127000C5684F000326BE40B543C560D5794E0012
:10128000B540C6683543C560491C1029BFD3F0BDC1
:101290004FF6FF7101600021017141718171C171CF
:1012A000704708B54FF480320092009A0A430092CA
:1012B000009AC261C161009AC261C2690092C269AA
:1012C000009208BD0246002013690B400BB10120BB
:1012D00000E0002070470146086980B2704702466E
:1012E000002053690B400BB1012000E00020704743
:1012F0000146486980B27047018370474183704757
:101300000AB1018300E0418370474161704742693F
:101310004A4042617047F0B5002300244D07ED0EAE
:1013200002FA05F3CE1000F1200555F826504E07BD
:10133000F70E0F26BE40B543CF1000F1200646F849
:101340002750CE1000F1200555F8265045EA030439
:10135000CE1000F1200545F82640F0BD0000024007
:101360000004024000080240000C0240001002404D
:101370000014024000180240001C024000200240FD
:10138000002402400028024010B50446FA48844276
:1013900008D10121102000F0AAFC0021102000F04B
:1013A000A6FC57E0F548844209D10121480400F029
:1013B0008DFC00214FF4003000F088FC4AE0F0483A
:1013C000844209D10121880400F080FC00214FF4FF
:1013D000802000F07BFC3DE0EA48844209D10121F5
:1013E000C80400F073FC00214FF4002000F06EFCF4
:1013F00030E0E548844209D10121080500F066FC8F
:1014000000214FF4801000F061FC23E0DF488442AB
:1014100008D10121202000F06AFC0021202000F0EA
:1014200066FC17E0DA48844209D10121880700F000
:101430004DFC00214FF0804000F048FC0AE0D54808
:10144000844207D10121400500F040FC00216005E5
:1014500000F03CFC10BD2DE9FF4705460E46002478
:10146000A14600BFA046B08900B100BF2C8A24F479
:101470004054F08804432C82AC8941F20C608443D0
:10148000B08831890843718908430443AC81AC8A30
:1014900024F44074B0890443AC82684600F0A7FA93
:1014A000B548854202D0B948854202D1DDF80C909A
:1014B00001E0DDF80890A88900F4004040B109EB94
:1014C000C90000EB091031684900B0FBF1F707E0F3
:1014D00009EBC90000EB091031688900B0FBF1F796
:1014E0006420B7FBF0F004012009642101FB1078AF
:1014F000A88900F4004040B1322000EBC800B0FBE6
:10150000F1F000F00700044308E0322000EB08107F
:101510006421B0FBF1F000F00F0004432C81BDE822
:10152000FF874FF41651016000218180C180018145
:101530000C21418100218181704710B502460020B5
:10154000108A20F470600B884C8823438C882343D6
:10155000CC8823431843108210BD002101804180B4
:101560008180C180704721B1828942F4005282811A
:1015700004E082894DF6FF731A4082817047028B26
:1015800002F47F420283028B0A430283704721B137
:10159000828942F40042828103E08289C2F30E0212
:1015A0008281704721B1828A42F40062828204E023
:1015B000828A4FF2FF731A4082827047C1F3080299
:1015C0008280704701468888C0F308007047028A0D
:1015D0004FF6F0731A400282028A0A430282704771
:1015E00021B1828942F00202828104E082894FF6B1
:1015F000FD731A408281704782894FF2FF731A404F
:10160000828182890A4382817047028A4FF6DF73A2
:101610001A400282028A0A430282704721B1028A7A
:1016200042F48042028204E0028A4BF6FF731A40C1
:1016300002827047818941F001018181704721B1A7
:10164000828A42F00802828204E0828A4FF6F773AF
:101650001A4082827047028BD2B20283028B42EA26
:1016600001220283704721B1828A42F020028282E5
:1016700004E0828A4FF6DF731A408282704721B1FC
:10168000828A42F01002828204E0828A4FF6EF736F
:101690001A4082827047828A4FF6FB731A40828218
:1016A000828A0A438282704721B1828A42F0020212
:1016B000828204E0828A4FF6FD731A40828270476C
:1016C0001AB1838A0B43838202E0838A8B4383822D
:1016D0007047F0B50346002400260025002040F6A0
:1016E0006A17B94200D100BF1846C1F3421401F095
:1016F0001F06012707FA06F5012C01D10C3004E082
:10170000022C01D1103000E014301AB107682F43C9
:10171000076002E00768AF430760F0BD02460020A3
:10172000B1F5007F00D100BF13880B400BB1012041
:1017300000E00020704701F40072B2F5007F00D194
:1017400000BFCA430280704770B5024600240023E0
:101750000025002040F66A16B14200D100BFC1F357
:10176000421501F01F03012606FA03F3012D13D1E0
:101770009689334017E0000000100140004400400B
:1017800000480040004C0040005000400014014060
:1017900000780040007C0040022D02D1168A3340C0
:1017A00001E0968A33400C12012606FA04F41688EA
:1017B000344013B10CB1012000E0002070BD10B521
:1017C0000022002340F66A14A14200D100BF0A1291
:1017D00001249440A3B2DC43048010BDF9480068A2
:1017E00040F00100F74908600020F6490831086020
:1017F000F4480068F4490840F2490860F348091DBC
:101800000860F348EF4984310860F0481038091D3A
:101810000860EC48006820F48020EA490860002055
:10182000E8490C310860E7498C31086070470021B5
:10183000E44A921C117011460870704710B50146B9
:101840000022002300204A11012A02D1DD4C236826
:1018500008E0022A03D1DB4C7034236802E0D94C43
:101860007434236801F01F02012494401C400CB121
:10187000012000E0002010BD38B5002000900024B9
:10188000002500BF3120FFF7D9FF05460098401C16
:1018900000900098B0F5A04F01D0002DF2D031207B
:1018A000FFF7CCFF08B1012400E00024204638BD3A
:1018B00001460020C34A106820F0F80040EAC10049
:1018C00010607047C349086070470021BD4A7032FC
:1018D00011701170012802D004280AD104E00121FE
:1018E000B84A7032117005E00521B64A70321170A5
:1018F00000E000BF00BF7047B7490860704770B58F
:10190000049C41EA82150126C6EB530645EA0645CA
:10191000054345EA0465AB4E361D356070BDAD49E3
:1019200008667047820142EA0172A64B84331A604E
:101930007047A8498866704710B5830143EA016380
:1019400043EA02739F4C8834236010BDA1490867A5
:101950007047A049C864704702460020994B08337D
:10196000186820F0EC6042EA01031843954B0833F5
:101970001860704702460020924B0833186820F028
:10198000784042EA010318438E4B083318607047D1
:10199000014600208B4A0832106820F003000843FB
:1019A0001060704787480830006800F00C007047EE
:1019B00001460020834A0832106820F0F0000843F6
:1019C00010607047014600207E4A0832106820F4FB
:1019D000E05008431060704701460020794A083201
:1019E000106820F4604040EAC10010607047F0B514
:1019F000002100220024022500260223714F08370F
:101A00003F6807F00C0121B1042905D0082937D11E
:101A100005E0724F076036E0714F076033E0694FB1
:101A20003F1D3F68C7F38056664F3F1D3F6807F074
:101A30003F036EB16A4FB7FBF3F7DFF888C10CF1D3
:101A4000040CDCF800C0CCF3881C07FB0CF40CE0A1
:101A5000624FB7FBF3F7DFF86CC10CF1040CDCF854
:101A600000C0CCF3881C07FB0CF4564F3F1D3F68A9
:101A7000C7F301477F1C7D00B4FBF5F7076002E068
:101A8000564F076000BF00BF4E4F08373F6807F052
:101A9000F0010909534F7A5C0768D7404760494F06
:101AA00008373F6807F4E051890A4E4F7A5C47686F
:101AB000D7408760434F08373F6807F46041490BC0
:101AC000484F7A5C4768D740C760F0BD002100F4FA
:101AD0004072B2F5407F0AD13A4A0832116821F4C7
:101AE000F811414A02401143364A08321160354A22
:101AF00070321268C0F30B031A43324B70331A6012
:101B000070473549443908607047334940390860A7
:101B1000704736490860704701460020294A8C32D8
:101B2000106820F01F004A1E1043264A8C321060B5
:101B3000704701460020234A8C32106820F4F85088
:101B40004A1E40EA02201F4A8C321060704701464C
:101B500000201C4A8C32106820F4401008431060AA
:101B6000704701460020174A8C32106820F440006C
:101B700008431060704701460020124A8C321068FA
:101B800020F44030084310607047194908607047DE
:101B900039B10C4A3032126802430A4B30331A60B2
:101BA00006E0084A303212688243064B30331A602E
:101BB0007047F9B1034A343212680243014B34339F
:101BC0001A601CE000380240FFFFF6EA10300024E3
:101BD0000030002000004742800E47420024F400FD
:101BE00000127A001E000020FFFCFF0F5C0147423C
:101BF000E01147428F4A126882438E4B1A60704749
:101C000039B18C4A121D126802438A4B1B1D1A609F
:101C100006E0884A121D12688243864B1B1D1A601B
:101C2000704739B1834A0C3212680243814B0C333E
:101C30001A6006E07F4A0C32126882437D4B0C33F7
:101C40001A60704739B17B4A103212680243794BEF
:101C500010331A6006E0774A103212688243754BDF
:101C600010331A60704739B1724A243A126802433D
:101C7000704B243B1A6006E06E4A243A1268824395
:101C80006C4B243B1A60704739B16A4A203A12689B
:101C90000243684B203B1A6006E0664A203A12680D
:101CA0008243644B203B1A60704739B1614A1C3A49
:101CB000126802435F4B1C3B1A6006E05D4A1C3A07
:101CC000126882435B4B1C3B1A60704739B1594A1A
:101CD000143A12680243574B143B1A6006E0554A07
:101CE000143A12688243534B143B1A60704739B15F
:101CF000504A103A126802434E4B103B1A6006E0FD
:101D00004C4A103A126882434A4B103B1A607047A3
:101D100039B1484A1C3212680243464B1C331A60E0
:101D200006E0444A1C3212688243424B1C331A605C
:101D3000704739B13F4A2032126802433D4B20338D
:101D40001A6006E03B4A203212688243394B203346
:101D50001A60704739B1374A243212680243354B52
:101D600024331A6006E0334A243212688243314B2E
:101D700024331A60704739B12E4A2C32126802435C
:101D80002C4B2C331A6006E02A4A2C32126882430C
:101D9000284B2C331A60704739B1264A303212680A
:101DA0000243244B30331A6006E0224A3032126874
:101DB0008243204B30331A607047012808D11D49F7
:101DC0003C31096841F008011A4A3C32116007E0D1
:101DD00018493C31096821F00801164A3C3211606B
:101DE000704739B1134A273A12780243114B273B07
:101DF0001A7006E00F4A273A127882430D4B273BB0
:101E00001A7070470B484030006840F080700949F4
:101E100040310860704701460020064A283A12689F
:101E20000A400AB1012000E000207047014926392C
:101E3000087070473438024010B50446FB488442AD
:101E400008D101218014FFF752FF0021A014FFF7F1
:101E50004EFF3CE0F648844208D101210014FFF710
:101E600035FF00212014FFF731FF30E0F1488442B4
:101E700008D10121C013FFF729FF0021E013FFF76C
:101E800025FF24E0EC48844208D101214014FFF7EB
:101E90002EFF00216014FFF72AFF18E0E748844274
:101EA00009D101210805FFF722FF00214FF480101E
:101EB000FFF71DFF0BE0E248844208D101214805ED
:101EC000FFF715FF00214FF40010FFF710FF10BDC2
:101ED00010B50022028802F441520B884C8823433B
:101EE0008C882343CC8823430C8923434C89234388
:101EF0008C892343CC8923431A430280838B4FF27E
:101F0000FF74234083830B8A038210BD2DE9F04FB9
:101F10000025022300244FF001090022002600279B
:101F200094469046B0F81CA04FF2400B0AEA0B0A08
:101F3000A0F81CA04FF0020AA0F820A0858BD1F8D1
:101F400008A0BAF1020F01D100BF82E0B1F804A0ED
:101F5000BAF1000F02D14FF0010901E04FF0020980
:101F6000DFF8E0A2DAF800A00AF4000ABAF1000FE4
:101F700009D0DFF8D0A2DAF800A02AF4000ADFF8CE
:101F8000C4B2CBF800A0DFF8BCA20AF17C0ADAF8F0
:101F900000A0CAF3881CDFF8ACA20AF17C0ADAF8C8
:101FA00000A0CAF30278DFF89CA2AAF1040ADAF8CA
:101FB00000A00AF03F07DFF88CA2AAF1040ADAF8C1
:101FC00000A00AF4800ABAF5800F08D1DFF878A2E1
:101FD000BAFBF7FA0AFB0CFABAFBF8F607E0DFF8EF
:101FE0006CA2BAFBF7FA0AFB0CFABAFBF8F6B1F8E6
:101FF00006A0BAF5007F0ED14FEA162A0AEB8A0A2C
:102000004FEA4A0AD1F808B0BAFBFBFA0AF1050A0E
:102010001FFA8AF20FE04FEA491AB6FBFAFA0AEB06
:102020008A0A4FEA4A0AD1F808B0BAFBFBFA0AF169
:10203000050A1FFA8AF24FF00A0AB2FBFAF202F01E
:102040000104A2EB040ACAF34F034FF6FF7A0AEA2F
:102050000424022B01DBFF2B01DD02230024B1F855
:1020600006A04AEA040A4AEA030AA0F820A0B1F846
:1020700004A0B1F80CB04AEA0B0AB1F802B04AEA7F
:102080000B0AB1F800B04AEA0B0A4AF4006A4AEABD
:1020900005058583BDE8F08F0021018041808180A6
:1020A000C180018141818181C18107210182704705
:1020B0000021018041808180C18002218160002156
:1020C0008181704721B1028842F04002028004E021
:1020D00002884FF6BF731A400280704721B1828B8D
:1020E00042F48062828304E0828B4FF6FF331A4011
:1020F0008283704702884FF2FF731A400280028881
:102100000A4302807047B1F5804F04D1028842F43F
:102110008042028004E002884BF6FF731A4002807E
:1021200070474FF6FF62914204D0028842F48072F9
:10213000028004E002884FF6FF631A400280704775
:1021400021B1828842F00402828004E082884FF646
:10215000FB731A408280704721B1828842F01002DE
:10216000828004E082884FF6EF731A4082807047C5
:1021700030B500220023848B4FF240052C4084832D
:1021800002240484828B0C88B4F5007F01D00C8873
:1021900014B94FF4807308E00C88B4F5407F03D085
:1021A0000C88B4F5807F00D100238C888D892C4366
:1021B0004D882C431C4344F400642243828330BD89
:1021C0000146888970478181704721B1028842F4B5
:1021D0000052028004E002884DF6FF731A4002802C
:1021E0007047018841F48051018070470246002009
:1021F000012901D0108B00E0908A70470146088ABF
:1022000070471AB183880B43838002E083888B4335
:102210008380704730B5002400230C110125A540B0
:10222000ABB2AAB185881D43858014E0003001401F
:1022300000380040003C00400034014000500140A4
:10224000005401400838024000127A000024F400D3
:1022500085889D43858030BD0246002013890B4050
:102260000BB1012000E000207047CA430281704793
:10227000F0B50246002000240023002501F00F07DE
:102280000126BE40B4B20B1101269E40B3B296881F
:1022900006EA03051689264016B10DB1012000E0BB
:1022A0000020F0BD10B5002201F00F040123A3406F
:1022B0009AB2D343038110BD704700000FB40449A4
:1022C00010B503AA029800F055FB10BC5DF814FB92
:1022D000180000202DE9F0410E460446002020623F
:1022E0002046E168884730B3252805D0D4E901218C
:1022F0009047206A401CF2E7E168204600278847A3
:10230000050018D0A5F14100192802D820354FF456
:1023100000673246294620462760FDF76FFF40B12F
:10232000012804D0F61D26F007060836D8E7361D2A
:10233000D6E72846DAE7206ABDE8F08170B50C469A
:102340000546012A05D02878800600D5EA690023D1
:1023500002E0012305E05B1C934202D2E05C00280E
:10236000F9D1A869E618C01AA861286A1844286239
:102370002846AFF3008004E0D5E9012114F8010BF1
:102380009047B442F8D32846AFF3008070BD0000F8
:102390002DE9F0410646002410687529314616A53E
:1023A00010D0AFF30080002802DA404213A507E006
:1023B00031688A0701D512A502E0490704D511A5A5
:1023C000012401E0AFF3008000210A2206F1240776
:1023D00009E0B0FBF2FCB0FBF2F302FB1C00303072
:1023E00078541846491C0028F3D123462A46304623
:1023F000BDE8F04100F040B8000000002D000000F2
:102400002B0000002000000070B5064600F030F8F8
:102410000468054630460A22002100F0BDFA2C600F
:1024200070BD4FF000020429C0F0128010F0030CC0
:1024300000F0EC82CCF1040CBCF1020F18BF00F8E4
:10244000012BA8BF20F8022BA1EB0C0100F0DEBA93
:102450005FEAC17C24BF00F8012B00F8012B48BFC4
:1024600000F8012B704770477047704770470000B5
:1024700000487047C40100202DE9F0470D469946F9
:102480009246044600F124080168880604D5E069F4
:1024900021F01001216000E00120A84201DD471B6E
:1024A00000E00027A1697A1902EB0900081AA0616F
:1024B0002078C00602D42046AFF30080002608E052
:1024C000D4E901211AF806009047206A401C761CC6
:1024D00020624E45F4DB2078C0060AD52046AFF3D3
:1024E000008006E0D4E9012130209047206A401C9A
:1024F0002062381EA7F10107F4DC07E0D4E90121CE
:1025000018F805009047206A401C2062281EA5F19B
:102510000105F3DC2046AFF300802078000602D5E9
:102520000220BDE8F0870120FBE770472DE9FF4F4F
:102530000C461E464FF0FF378BB0D2E90001DDF8A4
:1025400060800A908A46C1F30A5505B93D460021CC
:1025500008464FF00000BAF1000F00F4400005DA21
:1025600000EB80004FF4400101EA50004FEA90591F
:10257000B9F1010F00DDB9460A9850EA4A000ED0C1
:1025800044F61050A5F2FF3545432F14B8F1000F63
:102590001ED07542291E1EDDC9F100021CE0B8F1F3
:1025A000010F4FF0000001D0302103E0F24305E0BD
:1025B0002154401CB042FBDB304600220021215454
:1025C0000B99C1F80880C1E900200FB0BDE8F08F79
:1025D000BD1B6D1CDEE74A4600DA694206A800F022
:1025E00039FB06AB93E8070003AB83E807005046CE
:1025F0000A9900F021FC8DE80700A0F500501F3873
:1026000000900398002D0ADD42F21F014A4608445B
:10261000002303A90390684600F08AFE09E0A0F5B4
:1026200000504A461F38002303A90390684600F073
:1026300094FE8DE807000004000C03D04FF0FF303B
:10264000410800E01046B8F1000F03D000220092CC
:1026500015461EE0751E05D400F00EFA30326255A4
:102660006D1EF9D5B3460122084302D000227F1C1B
:1026700004E02078302801D100227F1E002A09972B
:1026800084D01DE0112D07DA00F0F6F930326255E2
:102690006D1C50EA0102F5D1084302D00098C8B180
:1026A0000EE00021681E05E0235C625C6354225446
:1026B000401E491C8142F7DBAB46A81B401E099017
:1026C000002004F80B000B98099AC0F80880C0E9B4
:1026D000002B7AE711264FF0000857E72DE9F04F5D
:1026E00088460446D21D22F0070191B0D1E90001CD
:1026F000CDE90A0100F068FF02460B98C00F01D037
:102700002D2007E02068810701D52B2002E0202141
:1027100001EAC000032A099001D0072A05DB03461D
:102720004146204600F006FA0BE12078800601D5EC
:10273000E06900E00620B8F1650F814606D0B8F1E7
:10274000660F18D0B8F1670F70D131E00020B9F1F1
:10275000110F009001DB112301E009F101030AAA26
:1027600001A90CA8FFF7E2FEDDE90C70002609F1D3
:102770000105834647E001204B4600904FF000479B
:102780000AAA01A90CA8FFF7D1FEDDE90DB00C994A
:102790005D46002610B909F101000D18B9EB0500DE
:1027A00003D4C0F1FF3609F10105A5EB09002BE0C8
:1027B000B9F1010F01DA4FF001090020B9F1110F51
:1027C0000090484601DD112300E003460AAA01A952
:1027D0000CA8FFF7ABFEDDE90C704D4600268346E2
:1027E000207800070AD4AB4500DA5D4601A8012D28
:1027F00004DD411911F8011C302907D04F4502DAD8
:1028000017F1040F04DA012082460FE06D1EEEE797
:10281000002F02DCED1B3E4403E0781CA84200DDE3
:102820007D1CB81B00F1010A4FF00047207800071B
:1028300003D4AA4501DB4FF0FF3A0021B7F1004F66
:102840000DF143088DF8431024D002202B23002FD4
:1028500001DA7F422D230A21021EA0F1010000DCD3
:102860005FB197FBF1FC97FBF1F201FB1C7C174673
:102870000CF1300C08F801CDEEE7A8F1010003706F
:102880002188090501D5452100E06521A0F1010855
:1028900000F8011C09980FA9A1EB0807FF1D00B162
:1028A0000120411901EBEA70A1693844081A401E61
:1028B000A0612078C00602D42046AFF300800998BA
:1028C00028B1D4E901219047206A401C2062207879
:1028D000C00622D52046AFF300801EE0002E04DBA8
:1028E000B34502DD01A8805D00E03020D4E901217C
:1028F0009047206A401C2062761CAAF101005FEA22
:10290000000A0AD100F0B4F8C0680168405CD4E95C
:1029100001219047206A401C2062281EA5F1010574
:10292000DCDC07E0D4E9012118F8010B9047206AAC
:10293000401C2062381EA7F10107F3DC2046AFF3EC
:102940000080032011B041E610B5436913B1AFF325
:10295000008001E0FFF7F2FC012010BD127800F1C9
:1029600024010A7000224A700122EDE711684FF03D
:10297000FF32E9E7074B70B50D467B4400F0C7F81E
:102980000446284600F0D8F910B14FF0FF3070BD72
:10299000204670BDF5E0FFFF2DE9F04791460F4658
:1029A00080460446002614F8015B2DB100F058F86B
:1029B0000068405DC007F6D12B2D02D02D2D18D018
:1029C000641E4A463946204600F0F4F827B13968BB
:1029D000A14201D1C7F800804FF0020471050BD568
:1029E0004042002803DDFFF743FD0460A007BDE877
:1029F000F08746F48066E4E70028F8DAFFF738FD50
:102A000004606FF00040F2E74FF0000200B513469B
:102A100094469646203922BFA0E80C50A0E80C50FE
:102A2000B1F12001BFF4F7AF090728BFA0E80C50AF
:102A300048BF0CC05DF804EB890028BF40F8042BA8
:102A400008BF704748BF20F8022B11F0804F18BF15
:102A500000F8012B7047000000487047C4010020B7
:102A600010B500F005F8001D10BD00BFB90B000047
:102A700000487047E401002030B5B0F10A024FEA87
:102A8000900E71F100034EEA817EB0EB0E0061EB17
:102A900091014FEA101E4EEA017E10EB0E0041EB51
:102AA00011114FEA102E4EEA016E10EB0E0041EBB1
:102AB00011214FEA104E4EEA014E10EB0E0041EB91
:102AC0001141401841F100014FEAD00040EA417045
:102AD0004FEAD10110EB80054FEA810444EA90747B
:102AE00044EB01046D1944EB0404521BA3414FF065
:102AF000000348BF0A3200D530BD401C41F100013F
:102B000030BD000001694A1C02610878704700B5B9
:102B10008FB0CDE901310021059105497944CDE916
:102B2000031011466846FFF7D5FB0FB000BD00004B
:102B3000E5FFFFFF2DE9F0411F460446032601682B
:102B4000072A01F4006004DB08B116A505E016A50C
:102B500003E008B115A500E015A521F010002060E4
:102B6000A069C01EA0610FB1401EA0612046AFF356
:102B700000804FB1D4E9012138469047206A401CBB
:102B80002062C01C206206E0206AFAE7D4E9012135
:102B900015F8010B9047761EF8D22046AFF300805F
:102BA000BDE8F0814E414E006E616E00494E460018
:102BB000696E66002DE9F05F824615468B46002758
:102BC0000AF10104B9460078302801D09DB113E024
:102BD00014F8010B0127782803D0582801D045B1FB
:102BE0000AE00DB1102D07D1002714F8010B1025B4
:102BF00002E0082500E00A250026B0460EE005FBAD
:102C0000080005FB06F101271FFA80F801EB1046CA
:102C1000B6F5803F00D3B94614F8010B294600F001
:102C2000B4F80028EBDABBF1000F05D00FB1641E39
:102C300000E05446CBF80040B9F1000F06D0FFF792
:102C400017FC02210160C81EBDE8F09F48EA06405B
:102C5000FAE700002DE9F047814616468AB035486C
:102C600078440DC88DE80D0032487844801C03ACD0
:102C70000DC884E80D0041F69B300844372190FBD5
:102C8000F1F290FBF1F5A5F1800501FB12041B3C6C
:102C900002D56442012000E00020DFF898A08046C1
:102CA0000027FA44AAF1BE0A0EE0E0070AD0324635
:102CB000684607EB470101230AEB810100F04DFB59
:102CC0008DE8070064107F1C002CEED1194F7F4463
:102CD000AE3F19E0E80715D007EB04100DF1180A14
:102CE00090E80E008AE80E00C068F04201D1981901
:102CF00008903246012306A903A800F02EFB03AB7F
:102D000083E807006D10641C002DE3D14FF0010330
:102D100032466946B8F1000F03A802D000F008FB64
:102D200001E000F01AFBC9E90001C9F808200AB067
:102D3000BDE8F087B40D0000007B00F08000704714
:102D40007546FFF789FEAE4605006946534620F0FA
:102D50000700854618B020B5FDF776FFBDE8204096
:102D60004FF000064FF000074FF000084FF0000B47
:102D700021F00701AC46ACE8C009ACE8C009ACE8FA
:102D8000C009ACE8C0098D4670473A2800D23038F7
:102D900020F02002412A01D3A2F13700884201D35A
:102DA0004FF0FF30704710B50446AFF30080204667
:102DB000BDE81040FDF74ABA4FF0013C50F8042B33
:102DC00051F8043B9A4221D1A2EB0C03934313EA3E
:102DD000CC1317D150F8042B51F8043B9A4215D16B
:102DE000A2EB0C03934313EACC130BD150F8042B42
:102DF00051F8043B9A4209D1A2EB0C03934313EA26
:102E0000CC13DBD04FF00000704700BFD01A01BADE
:102E1000B1FA81F101F0180122FA01F0CB40C1F1C1
:102E20002001DBB2C0B2C01A2CFA01F3D11A9143CF
:102E300011EAC311E6D170475FEA400C08BF91F078
:102E4000000F4FEA8C234FEAC12243EA51514FEA67
:102E50001C5018BF00F5F0404FEA300018BF41F099
:102E600000415FEA6C5C00F02980BCF1FF3F08BFC5
:102E700040F080407047130C06BF12044FF0100C56
:102E80004FF0000C130E04BF12020CF1080C130FCC
:102E900004BF12010CF1040C930F04BF92000CF15B
:102EA000020CD30F04BF52000CF1010C11464FF07D
:102EB0000002A0F11F00A0EB0C00704711F0004FC2
:102EC00008BF704731F000413FF4D5AF0B0C06BF8F
:102ED00009044FF0100C4FF0000C0B0E04BF090258
:102EE0000CF1080C0B0F04BF09010CF1040C8B0F43
:102EF00004BF89000CF1020CCB0F04BF49000CF198
:102F0000010CCCF12003A0EB0C0022FA03F302FA2F
:102F10000CF241EA030100F10100704720F07F4C00
:102F200080EA030023F07F47ACEB070303F57C53F3
:102F300000F0004003F1FF032DE980494FEA154BF3
:102F400009B44FEA144325EA0B4E24EA03480FF272
:102F5000042606EB132749083E785FEA320203FB9A
:102F60000667C7F5000707FB06F64FEA54374FEA36
:102F7000D64606F1020607FB066CCCF1005C4FEA70
:102F80001C472CEA074C07FB06F40CFB06F504EB88
:102F900015464FEA961634BF00204FF000404FEA26
:102FA000D13706FB07FC4FEA1C4C0CFB0BF7D21B7E
:102FB00003FB0CF761EB07010CFB0EF7B0EB0740CE
:102FC00072EB17420CFB08F734BFA2EB0742B2EBDF
:102FD000074261EB17414FEA0C444FEA910706FBA9
:102FE00007FC4FEA1C4C0CFB0BF7B0EBC74072EB35
:102FF000573203FB0CF734BFA2EBC742B2EBC74218
:1030000061EB57310CFB0EF7B0EBC70072EB577258
:103010000CFB08F734BFA2EBC702B2EBC70261EBAF
:103020005771039F4FEA816141EA921104EBCC048E
:103030004FEAD1374FEA826206FB07FC42EA901260
:103040004FEA80604FEA1C4C0CFB0BF7D21B03FBD2
:103050000CF761EB07010CFB0EF7B0EB074072EBCE
:1030600017420CFB08F734BFA2EB0742B2EB074252
:1030700061EB17414FEA8C554FEA910704EB9C2412
:1030800006FB07FC4FEA1C4C0CFB0BF7B0EBC740F0
:1030900072EB573203FB0CF734BFA2EBC742B2EB23
:1030A000C74261EB57310CFB0EF7B0EBC70072EB78
:1030B00057720CFB08F734BFA2EBC702B2EBC70292
:1030C00061EB577115EB4C254FEA816141EA921192
:1030D0004FEA82624FEAD13742EA901206FB07FCC0
:1030E00044F100044FEA80604FEA1C4C0CFB0BF7E4
:1030F000D21B03FB0CF761EB07010CFB0EF7B0EBE7
:10310000074072EB17420CFB08F734BFA2EB0742F3
:10311000B2EB074261EB174115EB1C154FEA813109
:1031200041EA92414FEA823242EA90424FEA8030CD
:103130004FEA0C7644F1000448EA03434EEA0B4898
:103140004FF0000EB2EB080C71EB030724BF624690
:1031500039464EEB0E0E4FF0000B0018524149411C
:103160004BEB0B0BB2EB080C71EB03077BF1000B85
:1031700024BF624639464EEB0E0E4FF0000B00188E
:10318000524149414BEB0B0BB2EB080C71EB0307BF
:103190007BF1000B24BF624639464EEB0E0E51EA1E
:1031A000020718BF46F0010616EB0E7655F1000235
:1031B00054F1000103D5BDE88901BDE80088BDE8F0
:1031C0008901BDE80048B619524141EB0101A3F164
:1031D0000103704780807F7E7D7C7B7A797877766B
:1031E00076757473727171706F6E6E6D6C6C6B6AE4
:1031F0006A69686867666665646463636261616082
:10320000605F5F5E5E5D5D5C5C5B5B5A5A595958FE
:103210005857575656555555545453535252525168
:10322000515050504F4F4F4E4E4D4D4D4C4C4C4BBE
:103230004B4B4A4A4A494949484848474747474605
:103240004646454545444444444343434342424241
:1032500042414141002B9C4630D477002BD01CB515
:103260004FEA370703B44FF010004FF01001BAF1E6
:10327000000F06D0BCF1000FDCBF40F0080040F0AA
:1032800008014FF000000FBCBDE810400BF1010B2E
:10329000BBF1010F08BF5FEA170722BF12F101025D
:1032A00011F101014FF0004143F1000300F0004033
:1032B00043EA00007047F9D35708D0E746EA0646CC
:1032C00013F1400F4FEA16461FDD13F1200FDFBF49
:1032D00016430A46002120335B42BED0C3F12007CB
:1032E00046EA064602FA07F74FEA164646EA070696
:1032F000C3F1200722FA03F201FA07F721FA03F1DA
:103300004FF0000342EA0702A7E746EA020646EA50
:1033100006464FEA164646EA0106BCBF46EA06469E
:10332000360C4FF000034FF000024FF0000194E71D
:103330002DE9804C9A46934670B491E8380007C84E
:1033400031EA400C48BF34EA430C03D5FFF7E6FDF1
:10335000FFF780FFF0BCBDE8008C2DE9804C9A4659
:10336000934670B491E8380007C810F0804F08BF4A
:1033700013F0804F03D100F005F8FFF76BFFF0BCAE
:10338000BDE8008C20F07F4780EA030023F07F4CEB
:1033900007EB0C03A3F57C5300F00040A3F1FE0300
:1033A00092F0000F00F0B38095F0000F00F07780EE
:1033B0002DE901494FEA11404FEA144621EA00483D
:1033C00000FB06FC24EA064708FB06F607FB08F8A4
:1033D00000FB07F718EB06484CEB164C4FEA124B74
:1033E00018EB07484FEA15464CEB174022EA0B4E04
:1033F0000BFB06FC25EA06470EFB06F607FB0EFE56
:103400000BFB07F71EEB064E4CEB164C4FF000067D
:103410001EEB074E4CEB174B18EB0B0840F100006E
:1034200018EB0E0B58EB000840F100008F1A4FF01C
:1034300000013CBFC943661B14BFB5EB040C00215F
:103440003CBFC943F61B4FEA17444EEA8E0E27EAEB
:1034500004454FEA1C4704FB07622CEA074C05FBB6
:1034600007F70CFB05F604FB0CFC16EB074642EBDA
:10347000174216EB0C4642EB1C421BEB060658EBC0
:103480000202414146EA9E0601D5BDE80189B6190E
:10349000524141EB0101A3F10103BDE801894FEA6B
:1034A00014454FEA114724EA054621EA074C05FB7B
:1034B00007F406FB07F70CFB06F105FB0CFC11EB10
:1034C000074144EB17444FEA124711EB0C4144EB20
:1034D0001C4422EA074C05FB07F206FB07F70CFB2E
:1034E00006F605FB0CFC16EB074642EB174216EB03
:1034F0000C4642EB1C456A1854F1000148BF704766
:10350000B619524141EB0101A3F10103704795F057
:10351000000F37D04FEA11424FEA144721EA024622
:1035200024EA074C02FB07F106FB07F70CFB06F445
:1035300002FB0CFC14EB074441EB17414FEA154723
:1035400014EB0C4441EB1C4125EA074C02FB07F548
:1035500006FB07F70CFB06F602FB0CFC16EB074616
:1035600045EB174516EB0C4645EB1C42121951F181
:10357000000148BF7047B619524141EB0101A3F168
:10358000010370474FEA14454FEA114724EA054604
:1035900021EA074C05FB07F106FB07F70CFB06F2D7
:1035A0004FF0000605FB0CFC12EB074241EB174104
:1035B00012EB0C4251EB1C4148BF7047921841EB93
:1035C0000101A3F10103704703B401984100009881
:1035D00050EAC12018BF04204A0D18BF40F0010076
:1035E00040F2FF72B2EB515F08BF40F002000128C9
:1035F00008BF052002B0704710B500290AD008782E
:10360000002807D005487844FFF7D6FB002801D0F2
:10361000002010BD0248784410BD00004A0400009C
:103620004204000010B500290AD00878002807D00D
:1036300005487844FFF7C0FB002801D0002010BDEA
:103640000248784410BD00003A0400003204000033
:103650004FEA41034FEA5353A3F58063D3F11E03AE
:10366000C8BFD3F1210C0CDD4FF0004242EAC12269
:1036700042EA505232FA03FC8CEAE17CACEBE17096
:103680007047102BC4BF0020704703F5787CBCF155
:10369000FF3F04D06FF0004282EA2100704770B50E
:1036A00000F0B0F84992248000207047F2E7000053
:1036B000DFF848C170B51CEA111E1EBF1CEA1315C5
:1036C0009EEA0C0F95EA0C0F00F06F8081EA03046C
:1036D00023EA4C134EEAD47E21EA4C1141F48011C6
:1036E00043F48013AE44A1FB024CA0FB0365AEF192
:1036F0007F7E361955EB0C05A1FB034C4CF1000302
:10370000A0FB021C16EB0C06654153F100030942B5
:1037100018BF46F0010613F4007F0BD14FEA0331C6
:103720004FEA0530340341EA155140EA16506FF074
:1037300003020AE04FEAC3214FEAC520F40241EA3E
:10374000555140EA56506FF0020202EB2E4201EB57
:10375000025585EACE710AD05FEA440C18BF24F006
:10376000004450F1000041F1000120EAD47040F221
:10377000FE7C624500D270BDA84214BF4FF0804469
:103780004FF04044002E08BF0024BEF1806FA8BF58
:10379000A1F1C041BDE8704080F282804FF000008E
:1037A00001F1C04101F0004170479EEA0C0F0CEAA4
:1037B000131518BF95EA0C0F06D04FF0000081EAF0
:1037C000030E0EF0004170BD00F01CF88900013EB0
:1037D00000F007B800F009B84FEA430C5FEA5C5C00
:1037E00008D081EA030100F05BB84FEA410C5FEAC0
:1037F0005C5CF6D14FF00000014970470000FF0704
:103800000000F87F0EF1020E2EF0030E5EF8046B3E
:10381000364205D4012A43EB030515F5001F12D8E3
:10382000012841EB010C1CF5001F0CD80ED14FEA0A
:10383000D17C15F5001F0CEB4C0C0CF1020C08BFF1
:103840004CEBD37C04E04FF0080C01E04FEAD37C52
:103850000CEB4C0526FA05F606F00706B6F1040C4B
:1038600006D20EEB860CBDE870404CF0010C6047B0
:10387000DFE80CF0090B02024FF000414FF00000AE
:10388000A1F5002170BD19461046012851EB010435
:1038900018BFD4F5001484BF002001F0004170BDB2
:1038A0000808A0F500114FEA3101704743004FEAC4
:1038B000D30C4FEA3C0C43401FBF40070CF1605152
:1038C00013F0FE4F70471CF0006F03D100200CF086
:1038D000004170470CF0004343EA507010B540EAD5
:1038E000CC0000F00EF800BF000000924FEA00018B
:1038F000FFF7D6BF4FF000414FF00000A1F50021C7
:1039000070470EF1020E2EF0030E5EF8044B2442B7
:1039100004D44FEA4102B2F17F4F11D84FEA40037D
:10392000B3F17F4F0CD80ED14FEAD07CB2F17F4F6C
:103930000CEB4C0C0CF1020C08BF4CEBD17C04E0FE
:103940004FF0080C01E04FEAD17C0CEB4C0324FA59
:1039500003F404F00704B4F1040C06D20EEB840C5B
:10396000BDE810404CF0010C6047DFE80CF00708A0
:1039700002024FF00040A0F5800010BD0846420052
:1039800018BFD2F1807288BF00F0004010BD4FF028
:103990004070E1EE100A7047FEF7A0BE0240000042
:1039A000000000A00000000005400000000000C86A
:1039B000000000000C4000000000409C00000000DF
:1039C000194000000020BCBE000000003440000090
:1039D000BFC91B8E00000004B5400000504BCFD083
:1039E0006607E2CF010000006C4100003E8251AA50
:1039F000DFEEA73401000000D9420000DCB5A0E2F0
:103A00003A301F97FFFFFFFFB4450000FD25A0C817
:103A1000E9A3C14FFFFFFFFFFF3F00000000008050
:103A200000000000FF3F00000000008000000000D8
:103A30007C3B00080000002030000000C4010008AA
:103A4000AC3B000830000020F8070000E00100084F
:103A50001C00000043000000F8FFFFFF0C00000006
:103A60000E0000000F0000002E00000010010000FA
:103A700043000000F8FFFFFF00404040404040404E
:103A80004040414141414140404040404040404031
:103A900040404040404040404005020202020202D5
:103AA0000202020202020202022020202020202024
:103AB0002020200202020202020290909090909038
:103AC00010101010101010101010101010101010F6
:103AD000101010100202020202028888888888886A
:103AE0000808080808080808080808080808080856
:103AF000080808080202020240000000000000005E
:103B000000000000000000000000000000000000B5
:103B100000000000000000000000000000000000A5
:103B20000000000000000000000000000000000095
:103B30000000000000000000000000000000000085
:103B40000000000000000000000000000000000075
:103B50000000000000000000000000000000000065
:103B60000000000000000000000000000000000055
:103B7000000000000000000000000000007A030ABE
:103B8000000000000000000001020304060708090D
:103B90000000000000000000000000000000010222
:0C3BA000030401020304060708090000EA
:040000050800018965
:00000001FF
